:020000040800F2
:1000000088060020310200086D090008E508000894
:100010006909000839040008BD0E0008000000004E
:10002000000000000000000000000000310B00088C
:100030003D04000800000000E9090008A90C0008C0
:100040004B0200084B0200084B0200084B0200085C
:100050004B0200084B0200084B0200084B0200084C
:100060004B0200084B0200084B0200084B0200083C
:100070004B0200084B0200084B0200084B0200082C
:100080004B0200084B0200084B0200084B0200081C
:100090004B0200084B0200084B0200084104000814
:1000A0004B0200084B0200084B0200084B020008FC
:1000B0004B0200084B0200084B0200084B020008EC
:1000C0004B0200084B0200084B0200084B020008DC
:1000D0004B020008390D00084B0200084B020008D3
:1000E0004B0200084B0200084B0200084B020008BC
:1000F0004B0200084B0200084B0200084B020008AC
:100100004B0200084B0200084B0200084B0200089B
:100110004B0200084B0200084B0200084B0200088B
:100120004B0200084B0200084B0200084B0200087B
:100130004B0200084B0200084B0200084B0200086B
:100140004B0200084B0200084B0200084B0200085B
:100150004B0200084B0200084B0200084B0200084B
:100160004B0200084B0200084B0200084B0200083B
:100170004B0200084B0200084B0200084B0200082B
:100180004B0200084B02000800F002F800F041F8B2
:100190000AA090E8000C82448344AAF10107DA45E2
:1001A00001D100F036F8AFF2090EBAE80F0013F0F3
:1001B000010F18BFFB1A43F001031847101000008D
:1001C00030100000103A24BF78C878C1FAD852071E
:1001D00024BF30C830C144BF04680C6070470000C1
:1001E0000023002400250026103A28BF78C1FBD840
:1001F000520728BF30C148BF0B607047732900F019
:10020000B880002070471FB500F0DAFF1FBD10B5A1
:1002100010BD00F0E1F81146FFF7F5FF00F0FEFE1B
:1002200000F0FFF803B4FFF7F2FF03BC00F0A0FEFC
:100230000948804709480047FEE7FEE7FEE7FEE77A
:10024000FEE7FEE7FEE7FEE7FEE7FEE704480549B6
:10025000054A064B70470000AD0C000889010008F4
:1002600088000020880600208802002088020020E4
:10027000704700000FB4044910B503AA029800F0BB
:100280007DF810BC5DF814FB140000202DE9F0414E
:100290000E460446002020622046E168884730B3BD
:1002A000252805D0D4E901219047206A401CF2E7B7
:1002B000E168204600278847050018D0A5F14100D5
:1002C000192802D820354FF40067324629462046C7
:1002D0002760FFF793FF40B1012804D0F61D26F0F8
:1002E00007060836D8E7361DD6E72846DAE7206A3B
:1002F000BDE8F08170B50C460546012A05D0287886
:10030000800600D5EA69002302E0012305E05B1CBA
:10031000934202D2E05C0028F9D1A869E618C01A1D
:10032000A861286A184428622846AFF3008004E0D8
:10033000D5E9012114F8010B9047B442F8D32846BF
:10034000AFF3008070BD704770477047704710B5BD
:10035000436913B1AFF3008001E0FFF7CBFF012049
:1003600010BD127800F124010A7000224A700122A7
:10037000EDE711684FF0FF32E9E70000074B70B579
:100380000D467B4400F011F80446284600F020F8A2
:1003900010B14FF0FF3070BD204670BD7F0C0000E3
:1003A00001694A1C02610878704700B58FB0CDE939
:1003B00001310021059105497944CDE90310114629
:1003C0006846FFF763FF0FB000BD0000E5FFFFFFC9
:1003D000007B00F080007047754600F029F8AE46BB
:1003E00005006946534620F00700854618B020B541
:1003F000FFF72CFFBDE820404FF000064FF000074C
:100400004FF000084FF0000B21F00701AC46ACE8BC
:10041000C009ACE8C009ACE8C009ACE8C0098D4629
:1004200070470446AFF300802046FFF7FBFE000054
:10043000004870472400002000BFFEE7704700001E
:1004400010B500244FF4807000F062F800202C49B1
:1004500008602C48006818B12B48006800B110BD36
:100460004FF48071294800F00EF9012841D00BE0CB
:10047000012000F07FFD601C04460C2804DD6FF0B5
:100480000A001F490860EAE74FF480711F4800F036
:10049000FAF80128ECD1062C04DA6FF00B001849A9
:1004A0000860DCE700240BE0012000F063FD601C25
:1004B0000446082804DD6FF00C0011490860CEE7FF
:1004C0004FF48071114800F0DEF80128ECD0042CC4
:1004D00004DA6FF00D000A490860C0E7002400F05C
:1004E000DBF80748006800B1B9E70020044908605C
:1004F00003E06FF009000249086000BFAFE70000A9
:10050000180000201C0000202000002000000240F5
:100510000149086070470000143C01400021234954
:100520008279002A3AD00A46126803689A430B4639
:100530001A600A1D126803689A430B1D1A6002793B
:1005400011440A6803681A430A60184A083212689C
:1005500003689A43154B08331A601A1D1268036822
:100560009A43124B0C331A604279102A0ED11A1F8B
:10057000126803681A430D4B08331A601A1D12687B
:1005800003681A43094B0C331A600DE0074942799E
:1005900011440A6803681A430A6005E002791144AD
:1005A0000A6803689A430A6070470000003C0140F3
:1005B000F0B50A4600210023002400BF3DE00125DC
:1005C00005FA01F3156805EA03049C4234D1056875
:1005D0004F000326BE40B543056015794E00B54077
:1005E0000668354305601579012D02D01579022D75
:1005F00016D185684F000326BE40B5438560557906
:100600004E00B540866835438560456801268E40BA
:10061000B5434560456896798E40B6B2354345602E
:10062000C5684F000326BE40B543C560D5794E006E
:10063000B540C6683543C560491C1029BFD3F0BD1D
:10064000F0B5002300244D07ED0E02FA05F3CE109D
:1006500000F1200555F826504E07F70E0F26BE4034
:10066000B543CF1000F1200646F82750CE1000F118
:10067000200555F8265045EA0304CE1000F1200568
:1006800045F82640F0BD0246002013690B400BB12F
:10069000012000E00020704770B5002500244FF4D1
:1006A00080718C48FFF7EFFF01287DD000208A4938
:1006B000086030E00CE0012000F080FC681C05467A
:1006C000B0F5167F04DD6FF014008449086070BD3A
:1006D0004FF480717F48FFF7D6FF0128EBD100254A
:1006E00010E0012000F06AFC681C0546B0F5167F9A
:1006F00008DDC4F1070101208840774909680843F3
:10070000754908604FF480717248FFF7BCFF0128FB
:10071000E7D00025641C082CCCDB00244DE00CE065
:10072000012000F04BFC681C0546B0F5167F04DD87
:100730006FF0170069490860C9E74FF48071654898
:10074000FFF7A1FF0128EBD12D2D04DA6FF018007F
:1007500062490860BBE7002514E0012000F02EFC90
:10076000681C0546B0F5167F0CDDC4F107010120B9
:10077000884059490968084020B16FF01E00574968
:100780000860A4E74FF480715248FFF77CFF01280E
:10079000E3D0B5F5167F0EDAC4F1070101208840D9
:1007A0004D490968084000E092E020B96FF01F0051
:1007B0004A4908608BE70025641C082CAFDB002049
:1007C00047490860002430E00CE0012000F0F6FB0F
:1007D000681C0546B0F5167F04DD6FF028003F4920
:1007E000086074E74FF480713A48FFF74CFF012826
:1007F000EBD1002510E0012000F0E0FB681C05466D
:10080000B0F5167F08DDC4F10701012088403449A6
:1008100009680843324908604FF480712D48FFF79A
:1008200032FF0128E7D00025641C082CCCDB002413
:100830004CE00CE0012000F0C1FB681C0546B0F55F
:10084000167F04DD6FF02B00244908603FE74FF46A
:1008500080712048FFF717FF0128EBD1B5F5C87F5D
:1008600004DA6FF02C001D49086030E7002514E021
:10087000012000F0A3FB681C0546B0F5167F0CDDD7
:10088000C4F107010120884015490968084020B1DA
:100890006FF02D001149086019E74FF480710D4881
:1008A000FFF7F1FE0128E3D0B5F5167F0CDAC4F1AD
:1008B0000701012088400A490968084020B96FF003
:1008C0002E000649086002E70025641C082CB0DBF6
:1008D00000BFFCE6000002401C00002018000020C1
:1008E0002000002000BFFEE700B585B001210846CA
:1008F00000F07CF80121880300F088F800208DF8D2
:1009000010008DF812004FF48070039001208DF8D4
:1009100013008DF8110003A91248FFF749FE0821C2
:10092000002000F007F94FF48070019001208DF84D
:100930000A0000208DF808000C208DF8090001A89D
:10094000FFF7ECFD17208DF8000001208DF8030063
:1009500000208DF801008DF80200684600F008F8CC
:1009600005B000BD0000024000BFFEE77047000078
:1009700070B5002100230F22C4781CB3174C2468E3
:1009800004F4E064C4F5E064C4F30721C1F1040495
:10099000E3B20A4144789C40E1B284781440214398
:1009A0000C07210E0E4C05786155047804F01F05E4
:1009B0000124AC4005786D11AD0005F1E025C5F8C6
:1009C000004109E0047804F01F050124AC40054D06
:1009D0000678761145F8264070BD00000CED00E069
:1009E00000E400E080E100E07047000029B1064A21
:1009F00012680243044B1A6004E0034A12688243FF
:100A0000014B1A60704700003038024029B1064A95
:100A100012680243044B1A6004E0034A12688243DE
:100A2000014B1A607047000044380240F0B50021C5
:100A300000220024022500260223324F3F6807F0DF
:100A40000C0121B1042905D0082937D105E02E4F2A
:100A5000076036E02D4F076033E02A4F3F1F3F68A5
:100A6000C7F38056274F3F1F3F6807F03F036EB123
:100A7000264FB7FBF3F7DFF88CC0ACF1040CDCF8C1
:100A800000C0CCF3881C07FB0CF40CE01E4FB7FB36
:100A9000F3F7DFF870C0ACF1040CDCF800C0CCF365
:100AA000881C07FB0CF4174F3F1F3F68C7F3014733
:100AB0007F1C7D00B4FBF5F7076002E0124F076072
:100AC00000BF00BF0F4F3F6807F0F0010909104F4A
:100AD0007A5C0768D74047600A4F3F6807F4E051E7
:100AE000890A0B4F7A5C4768D7408760054F3F689B
:100AF00007F46041490B064F7A5C4768D740C760EE
:100B0000F0BD0000083802400024F40000127A0012
:100B10000000002030B5002204E08B88DDB21346CF
:100B2000521CC5540B8803F02003002BF5D130BDB7
:100B30007047000030B500228B071C0F0F2303FA0B
:100B400004F20B4B8C1053F824309343084C8D1057
:100B500044F8253023468C1053F824308C07240F9A
:100B600000FA04F42343024C8D1044F8253030BDC4
:100B70000838014070B504460D4600BF288800F0D3
:100B800080000028FAD0214601A0FFF773FB70BD5A
:100B9000257300000CB500200190009034480068D7
:100BA00040F480303249086000BF3148006800F4EA
:100BB000003000900198401C0190009818B90198ED
:100BC000B0F5A04FF1D12A48006800F4003010B110
:100BD0000120009001E0002000900098012846D1FB
:100BE00023484030006840F080502149403108607F
:100BF0002048006840F440401E4908601C48083006
:100C000000681B49083108600846006840F400404D
:100C100008600846006840F4A05008601648091FA4
:100C20000860081F006840F08070091F086000BF5E
:100C30000F48006800F000700028F9D040F20570FD
:100C40000E4908600A480830006820F0030008498F
:100C5000083108600846006840F00200086000BFE4
:100C600003480830006800F00C000828F8D10CBDDB
:100C7000003802400070004008544007003C024029
:100C8000042808D14FF0E021096941F004014FF038
:100C9000E022116107E04FF0E021096921F0040131
:100CA0004FF0E022116170477047000010B5154801
:100CB000006840F47000134908601348006840F071
:100CC00001001149086000200F49083108600E48F2
:100CD00000680E4908400C4908600D48091D08606D
:100CE000081F006820F48020091F086000200649C2
:100CF0000C310860FFF74EFF4FF00060014980396A
:100D0000086010BD88ED00E000380240FFFFF6FEED
:100D10001030002410B56FF00400FFF7B1FF15206C
:100D20000349087045F208200249088010BD000000
:100D300010000020120000203EB500246D46202146
:100D4000094800F01FF870B100BF02E000202855EC
:100D5000641C0A2CFADB04492846FFF7DBFE024933
:100D60002846FFF707FF3EBD0010014021B18289F0
:100D700042F40052828104E082894DF6FF731A40EA
:100D80008281704702460020B1F5007F00D100BF8C
:100D900013880B400BB1012000E000207047F0B534
:100DA0000346002400260025002040F66A17B942B9
:100DB00000D100BF1846C1F3421401F01F060127FD
:100DC00007FA06F5012C01D10C3004E0022C01D108
:100DD000103000E014301AB107682F43076002E0BA
:100DE0000768AF430760F0BD2DE9FF4705460E4693
:100DF0000024A14600BFA046B08900B100BF2C8AE4
:100E000024F44054F08804432C82AC8941F20C60F5
:100E10008443B08831890843718908430443AC8115
:100E2000AC8A24F44074B0890443AC826846FFF76E
:100E3000FDFD2048854202D01F48854202D1DDF8E1
:100E40000C9001E0DDF80890A88900F4004040B162
:100E500009EBC90000EB091031684900B0FBF1F75C
:100E600007E009EBC90000EB091031688900B0FB0D
:100E7000F1F76420B7FBF0F004012009642101FBC5
:100E80001078A88900F4004040B1322000EBC8007F
:100E9000B0FBF1F000F00700044308E0322000EB63
:100EA00008106421B0FBF1F000F00F0004432C8126
:100EB000BDE8FF87001001400014014000BFFEE7BD
:100EC00010B588B0044601211020FFF79FFD0121D5
:100ED0000846FFF78BFD072209212348FFF7B0FBE7
:100EE00007220A212048FFF7ABFB02208DF81C00E7
:100EF00000208DF81E004FF4C060069001208DF890
:100F00001F0002208DF81D0006A91748FFF750FBAF
:100F100002940020ADF814000C20ADF8120000205F
:100F2000ADF81000ADF80E00ADF80C0002A90F48A6
:100F3000FFF75AFF012240F225510C48FFF72FFF1F
:100F400025208DF8040001208DF8070000208DF881
:100F500005008DF8060001A8FFF70AFD01210348EE
:100F6000FFF704FF08B010BD000002400010014070
:100F700000BF70470021104A128842434FF0E0231F
:100F80005A6100229A611A46126942F001021A61FE
:100F900000BF4FF0E022116901F48032002AF8D03E
:100FA0004FF0E022126922F001024FF0E0231A61B3
:100FB00000229A6170470000120000200021104AB0
:100FC000127842434FF0E0235A6100229A611A4698
:100FD000126942F001021A6100BF4FF0E02211696C
:100FE00001F48032002AF8D04FF0E022126922F09A
:100FF00001024FF0E0231A6100229A61704700005D
:101000001000002000BF044A128802F08002002A6B
:10101000F9D0014B9880704700100140FFF77AFE2D
:10102000FFF762FC4FF4E130FFF74AFF49A0FFF7FA
:1010300021F98DE04F4800680028FAD04D4800683B
:10104000A22803D14CA0FFF715F97EE049480068BB
:10105000622803D149A0FFF70DF976E04548006802
:10106000E22803D146A0FFF705F96EE04148006889
:10107000222803D143A0FFF7FDF866E03D48006851
:10108000022803D140A0FFF7F5F85EE03948006878
:10109000C22803D13DA0FFF7EDF856E035480068BF
:1010A000E02803D13AA0FFF7E5F84EE031480068A8
:1010B000A82803D137A0FFF7DDF846E02D480068E7
:1010C000902803D134A0FFF7D5F83EE02948006806
:1010D000682803D131A0FFF7CDF836E02548006835
:1010E000982803D12EA0FFF7C5F82EE0214800680C
:1010F000B02803D12BA0FFF7BDF826E01D480068FB
:10110000182803D128A0FFF7B5F81EE01948006899
:10111000102803D125A0FFF7ADF816E015480068A8
:10112000382803D122A0FFF7A5F80EE01148006887
:101130005A2803D120A0FFF79DF806E00D4800686B
:101140004A2802D11DA0FFF795F800200949086040
:1011500070E70000B3F5CABCBBAFB3C9B9A6A3A181
:10116000BFAACABCBCE0B2E2BAECCDE2A3A10D0AB0
:101170000000000020000020310D0A00320D0A009E
:10118000330D0A00340D0A00350D0A00360D0A0031
:10119000370D0A00380D0A00390D0A002A0D0A0021
:1011A000300D0A00230D0A00550D0A004C0D0A00EF
:1011B0004F4B0D0A00000000520D0A00440D0A00BA
:1011C0004FF04070E1EE100A70470000EC1100088B
:1011D0000000002024000000C401000810120008D4
:1011E0002400002064060000E00100080000000068
:1011F00001020304010203040607080900000000BD
:1012000000000000000000000000000000000000DE
:040000050800018965
:00000001FF
